:0D110500536572766F204D6F746F7220007D
:0A10640042004D000042004F000062
:100CC1009000007406F012109A7D01E4FF12108367
:100CD1007BFF7A117905120FA6900000E0FD7F01DC
:100CE100121083120A96900054EFF0643D6047E0C1
:100CF1006044900000E0FD7F01121083900054E0F9
:100D0100FF1210D4900054E0FF90004FE0FCA3E0EC
:100D11002451F58274003CF583EFF0900000E0046B
:100D2100F0900050E004F0700690004FE004F0E411
:100D3100900054F08093900054E0643D708B121049
:100D4100E690004FE0FEA3E02451F58274003EF5E9
:100D510083E4F07B017A007951120BE690004DEEAD
:100D6100F0A3EFF0120D7C9000007406F0E4900007
:0B0D71004FF0A3F0900054F0020CCAF9
:10109A007F381210C27F0C1210C27F011210C27F59
:0410AA00800210C2EE
:1010C2008F80C2A5C2A612103EC2A77F0A7E00026E
:0210D2001044C8
:1010D4008F80C2A5D2A612103EC2A77F0A7E00024C
:0210E4001044B6
:0B0FA60090000BEBF0A3EAF0A3E9F0D1
:100FB100E4A3F0A3F090000BE0FBA3E0FAA3E0F9B7
:100FC100A3E0FEA3E0F5828E83120536FF601312C3
:100FD10010D490000FE004F070DB90000EE004F0FC
:020FE10080D3BB
:010FE30022EB
:10108300EF7005ED24808003ED24C0900001F09003
:071093000001E0FF0210C2A2
:06103E00D2A77F0A7E002C
:10104400E4FDFCC3ED9FEC9E5015E4FBFA0BBB00E2
:0F105400010AEB64704A70F50DBD00010C80E4D9
:01106300226A
:04106E0041005400E9
:100A9600D290D291D292D293C297D296D295D29434
:100AA6002093103093FD7F371210D4900054743782
:100AB600F080372092103092FD7F381210D49000CB
:100AC600547438F080242091103091FD7F39121033
:100AD600D49000547439F0801120900E3090FD7F30
:100AE6002F1210D4900054742FF0D297C296D2953C
:100AF600D2942093103093FD7F341210D49000547A
:100B06007434F080372092103092FD7F351210D465
:100B16009000547435F080242091103091FD7F367A
:100B26001210D49000547436F0801120900E30903C
:100B3600FD7F2A1210D4900054742AF0D297D296D0
:100B4600C295D2942093103093FD7F311210D49029
:100B560000547431F080372092103092FD7F3212AB
:100B660010D49000547432F080242091103091FDFE
:100B76007F331210D49000547433F0801120900EFD
:100B86003090FD7F2D1210D4900054742DF0D29722
:100B9600D296D295C29420930A3093FD7F0112100B
:100BA600C280372092103092FD7F301210D4900010
:100BB600547430F080242091103091FD7F3D121046
:100BC600D4900054743DF0801120900E3090FD7F3B
:100BD6002B1210D4900054742BF0900054E0FF2296
:04000300252A640046
:1010720042003B0000480043060906000000000051
:03000B00020FE4FD
:100FE400C0E0C083C082C0D075D000C004C005B2C8
:100FF400A030A00590004B800390003DE0FCA3E0EE
:10100400FDECF58C8D8AD005D004D0D0D082D0836D
:03101400D0E032F7
:1010E600758901758CB7758AFDD28CD2AFD2A922CB
:060E9E0090000112058323
:100EA4009000057448F0A37402F0900005E0FCA3E0
:100EB400E0FDE41201B9E4FBFA79C87842120117A3
:100EC400900001E0F8A3E0F9A3E0FAA3E0FB12002C
:100ED4000E1201F290004BEEF0A3EFF090004BE005
:100EE400FEA3E0FFC374029FFD74489EFC90003D86
:100EF400F0A3EDF0C374FF9F90004CF074FF9E903C
:100F0400004BF0C374FF9D90003EF074FF9C900072
:020F14003DF0AE
:010F160022B8
:080F6700900001EEF0A3EFF091
:100F6F0090000E74FFF0A37400F0A37403F0AF05AC
:100F7F00A3ECF0A3EFF0900001E0FFA3E0900013CB
:100F8F00CFF0A3EFF07B017A0079031206787B0193
:070F9F007A007903020FA69E
:0B0F1700900001EBF0A3EAF0A3E9F06A
:100F2200EFC39408503EEF75F008A42440FF12105E
:100F3200C2E4900004F0900004E0FFC39408501F44
:100F4200900001E0FBA3E0FAA3E0F98F8275830031
:100F5200120536FF1210D4900004E004F080D77F0F
:040F6200801210C227
:010F66002268
:100D7C00D3EF94B4EE94004003020E11C3EE940032
:100D8C005003020E1190003BEEF0A3EFF07D067FB6
:100D9C000112108390003BE0FEA3E0FF7D037C007A
:100DAC00120F677B017A0079437F01120F177D09BF
:100DBC007F011210837F011210D47FF47E01121078
:100DCC004490003CE0242DFD90003BE03400FCE41A
:100DDC001201B9E4FBFA79347843120117E4FBFAF7
:100DEC007920784112000E90003F12058390003F4D
:100DFC00E0FCA3E0FDA3E0FEA3E0FF120E9E7FF457
:060E0C007E0112104422D9
:10000E00EC4D6011E8497017ED33EC3304600DE4EC
:10001E00FCFFFEFD22E933E8330470F802025E12A3
:10002E00022958046009E4CC2481500628500902A4
:10003E000268284003020265C0E0EB4A7044B980B2
:10004E0006D0E0FB020254EF4E701CBD8008EBFFA1
:10005E00EAFEE9FD80EBE98DF0A4FEE5F00200F783
:10006E00E9CDF9EAFEEBFFEF89F0A4FCE5F0CE89CD
:10007E00F0A42EFFE435F0CD89F0A42DFEE435F08A
:10008E008067EF4E7005BD80D780C3EF8BF0A4ACB8
:10009E00F0EE8BF0A42CFCE435F0F8EF8AF0A42CF3
:1000AE00E5F038FCE433CB8DF0A42CFCE5F03BF806
:1000BE00EE8AF0A42CFCE5F038F8E433CF89F0A4F6
:1000CE002CFCE5F038CF3400CE89F0A42FFFE5F0FC
:1000DE003EFEE433C98DF0A42EFEE5F039CD8AF054
:1000EE00A42FFFE5F03EFEE43DFD33D0E0FB5007CC
:1000FE000BBB000F020268EC2CFCEF33FFEE33FE5D
:06010E00ED33FD0202408A
:10011400020268EC5D046005E85904700302025EA3
:10012400120229580460F6EC4860F2EC7004FDFEFB
:10013400FF22C860DB2481C85009C39860025006BE
:100144000202659850CAF582E9294B4A7005AB82D0
:1001540002025475F0007C1A7880C3EF9BEE9AED8E
:1001640099400DC3EF9BFFEE9AFEED99FDE842F036
:10017400DC23ACF0D0E0FFD0E0FED0E0FDAB822089
:10018400E7101BEB60BAEC2CFCEF33FFEE33FEED13
:1001940033FD020240E803F830E705C0F075F000D3
:1001A400EF2FFFEE33FEED33FD40B830E7C280AAF7
:1001B40075F020800E75F010800575F0087D007EC6
:1001C400007F003392D530D503120575EC3340100F
:1001D400EF33FFEE33FEED33FDEC33FCD5F0ED22CF
:0E01E400E5F0247EA2D513CC92E7CDCEFF220B
:1001F200EDD2E7CD33EC3392D524814006E4FFFE05
:10020200FDFC22FCE4CFCECDCC24E0501174FF8063
:10021200EDC3CC13CCCD13CDCE13CECF13CF047000
:07022200F030D5DE02057586
:10061300E508240EF582E43400F583E00508229012
:10062300000B30070390000EE475F00112058F02F2
:10063300051D2000E97F2ED2008018EF540F24906F
:10064300D43440D4FF30040BEF24BFB41A0050035A
:100653002461FFE50960021509050CE50C7002052C
:100663000B30070E90000BE475F00112058FEF02BB
:1006730005630210177403D2078003E4C207F50869
:1006830090000B1205A6E4F509F50BF50CE50960DE
:10069300077F2012065680F5750AFFC201C200C209
:1006A30002C203C205C206C208120622FF700D3041
:1006B30007057F00120667AF0CAE0B22B4255FC29D
:1006C300D5C204120622FF24D0B40A00501A75F0D2
:1006D3000A780930D50508B6FF0106C6A426F62018
:1006E300D5047002D20380D924CFB41A00EF50048A
:1006F300C2E5D204020959D20180C6D20080C0D219
:100703000280BCD2D580BAD20580B47F20120656AF
:100713002002077401B5090040F1120613FF120607
:1007230056020690D208D2068095120613FB1206D3
:1007330013FA120613F94A4B700679577A0A7BFFAC
:1007430020022EE509602A7E008E82758300120541
:100753003660060EEE650A70F0C2D5EBC0E0EAC063
:10076300E0E9C0E0EE1209BAD0E0F9D0E0FAD0E057
:10077300FB12051DFF60AAEBC0E0EAC0E0E9C0E0A0
:10078300120656D0E02401F9D0E03400FAD0E0FBA1
:10079300E50A0460DCD50AD98087D20280A2120957
:1007A3009C60F7E50A700104120273A90A600DE563
:1007B3000A600914F50A120A44EF60F3EA30E7020B
:1007C300F404C3995079EAF4250A0430E701E404F8
:1007D300F50A800D12099C60C1EA050A250A120276
:1007E30073EA90003AF030E701E4250A04D50A04DD
:1007F300200501141209BAE4C0E0120A4490003A39
:10080300E0601320E70714F012063E802204F0D0C4
:10081300E014C0E07F0012063EE50A6007120635C9
:10082300150A800B300503120635D0E0020690D07E
:10083300E00480C412099C609EE50A0412027390CE
:10084300003AEAF0E50A20050260010424041209D3
:01085300BAEA
:1008540074FF04C0E0120A4412063EE50A200502B1
:100864006003120635D0E0B50AE87F4512064890C9
:10087400003AE07F2B30E7047F2DF404C0E0120639
:1008840056D0E075F00A84C0F012063FD0E012069C
:100894003F020690791080027908C206C2088008D7
:1008A400D2D5790A8004790AC2D5E50A047002F522
:1008B4000AE4FAFDFEFF120613FC7B082001131262
:1008C4000613FD7B1030000A120613FE120613FFF6
:1008D4007B20EC3382D592D55013C3E43000069FBD
:1008E400FFE49EFEE42001039DFDE49CFCE4CBF8C0
:1008F400C201EC700CCFCECDCCE824F8F870F380B4
:1009040017C3EF33FFEE33FEED33FDEC33FCEB3373
:10091400FB994002FB0FD8E9EB300105F8D0E0C4A5
:1009240048B201C0E00AEC4D4E4F78207B0070C203
:10093400EAB50A0040BCC0E01209BCD0F0D0E02007
:100944000104C4C0E0C4B201C0F012063FD0F0D527
:10095400F0EB0206901205AF072D5308985806FED7
:100964004C06FA42089C4F08A44408A449071343C0
:1009740008AA5507D74608374507A1470A775007FD
:10098400022D07062E07292B070A230727200A60B2
:100994002A06C24800000721E50AB4FF03750A06C7
:1009A400120613FC120613FD120613FE120613FFA1
:1009B4009000330202B0790AA2D52003143005094D
:1009C400B910020404B9080104A2D520060250019A
:1009D400042002689202B509005034C0E07F203040
:1009E40003197F30A20272067205500F120A13C255
:1009F40002C206C205C2087F30800F300503E9C079
:100A0400E0120656300503D0E0F9D0E0B509CC3049
:100A140005177F30B9100C1206567F583004077F33
:100A2400788003B908031206563002057F2D0206AA
:100A3400567F202008F87F2B2006F322920280CFD5
:100A44007F00B40700500B2433F582E43400F583AF
:100A5400E0FF22286E756C6C2900D2011206133057
:100A640001F8C201780930D50108F60206C22D50FA
:100A74004349581206132403B405004001E4900AC4
:100A84007293120647743A120647D2037509040298
:020A94000898C0
:10022900E9D2E7C933E833F892D5EDD2E7CD33EC1B
:0702390033FC5002B2D52294
:10024000EC30E7100FBF000C0EBE00080DBD00041F
:100250000BEB6014A2D5EB13FCED92E7FD2274FFCB
:10026000FCFDFEFF22E480F8A2D574FF13FC7D8024
:03027000E480EF38
:10027300F920E73624F950037907E4F42402FBE577
:1002830082158270021583DBF6E024FB501BE960C4
:1002930014E4F0E582158270021583E004F0B40AD9
:0D02A30008E4F0D9EE7401F00A22C2D52261
:1002B000ED33EC3392D5FA602AB4FF33EDC2E77B1D
:1002C000FF60067A0279D5E4227A0279DE20D5042D
:1002D0007A0279D9224E614E002B494E46002D49B3
:1002E0004E4600E47A08F0A3DAFC7B00740722C0D3
:1002F00083C082ECC0E0EDC0E0EEC0E0EFC0E0EA19
:1003000075F010A4CAABF075F04DA42BFBE435F0EA
:10031000FCEA2410FAEB34C5FBEC34D9FCEDC2E75F
:10032000FF75F056A4F42411C5F0F434C58FF0A481
:100330002AE5F03BE43CF020E7141204DDD0E0FFB6
:10034000D0E0FED0E0FDD0E0FC1201178014F404F0
:100350001204DDD0E0FFD0E0FED0E0FDD0E0FC12E2
:10036000000ED082D083E0FAEDD2E7CD33EC332417
:1003700082FBE4C3CF33CFCE33CECD33CD33DBF3EB
:100380007B0775F00A846004F0A31B0AE5F0F0A374
:100390008FF0740AA4FFACF08EF0740AA42CFEACAB
:1003A000F050010C8DF0740AA42CFDE435F0F0A39C
:0503B000DBDE740722F2
:1003B50002025EE86480F8E933E83360110460F016
:1003C500ED33EC337009E8FCE9FDEAFEEBFF2204AE
:1003D50060DED3EB9FEA9EE99DE8C2E78CF0C2F7A9
:1003E50095F0400CE8CCF8E9CDF9EACEFAEBCFFB75
:1003F50012022985D0F05804700320D5B3E80470A3
:10040500075002B2D502026892D5EC0460F7E4CC3D
:10041500C0E0C398F8603B94186008400DD0E0FB3D
:10042500020240E4FBFAC9FC8028E830E406E4C98E
:10043500FBE4CAFCE830E305E4C9CACBFCE8540791
:100445006010F8C3E913F9EA13FAEB13FBEC13FC9C
:10045500D8F130F52FC3E49CFCEF9BFFEE9AFEED3F
:1004650099FDD0E0FBEF4E4D4C701222DB030202EA
:1004750065EC2CFCEF33FFEE33FEED33FDED30E79D
:10048500EB020240EF2BFFEE3AFEED39FDD0E0FB2B
:1004950050130BBB0003020268ED13FDEE13FEEFD4
:0804A50013FFEC13FC020240FE
:1004AD003F8000004120000042C80000447A000057
:1004BD00461C400047C35000497424004B189680D9
:1004CD004CBEBC205A0E1BCA6753C21C749DC5AED0
:1004DD00FB60065407601C232312050BEB54386098
:1004ED00091204F712050612000EECF8EDF9EEFAFA
:1004FD00EFCB22EB12050680F1543803241C900437
:10050D00ADFE93FC0EEE93FD0EEE930ECE93FF22F9
:03000000020E12DB
:0C0E1200787FE4F6D8FD758121020E59AE
:10051D00BB010689828A83E0225002E722BBFE02DC
:09052D00E32289828A83E493220F
:10053600BB010CE58229F582E5833AF583E022507A
:1005460006E92582F8E622BBFE06E92582F8E222C4
:0D055600E58229F582E5833AF583E49322DE
:10056300BB010689828A83F0225002F722BBFE0177
:02057300F32271
:0E057500C3E49FFFE49EFEE49DFDE49CFC2297
:0C058300ECF0A3EDF0A3EEF0A3EFF022EB
:10058F00F8E0FBA3A3E0F925F0F0E58215827002F5
:07059F001583E0FA38F02299
:0905A600EBF0A3EAF0A3E9F02256
:1005AF00D083D082F8E4937012740193700DA3A3DB
:1005BF0093F8740193F5828883E4737402936860EF
:0605CF00EFA3A3A380DFEF
:10101700EFB40A07740D121022740A309811A899B8
:10102700B8130CC2983098FDA899C298B811F63039
:0710370099FDC299F5992211
:100BE600900001EBF0A3EAF0A3E9F0900001E0FB2E
:100BF600A3E0FAA3E0F912051DFF1210AE500C9007
:100C06000002E475F0011205E780E0D200900001D1
:100C1600E0FBA3E0FAA3E0F912051DFF642B6004D4
:100C2600EFB42D1D900001E0FBA3E475F001120561
:100C3600FDA9F0FA12051D642D6003D38001C3924D
:100C460000E4900004F0A3F0900001E0FBA3E0FABA
:100C5600A3E0F912051DFF1210F65042900001E0C4
:100C6600FBA3E0FAA3E0F912051DFF3395E0FEEFC2
:100C760024D0FBEE34FFFA900004E0FEA3E0FF7CF4
:100C8600007D0A1205D5EF2BFFEE3A900004F0A383
:100C9600EFF0900002E475F0011205E780AA30003B
:100CA6000A900004E0FEA3E0FF800F900004E0FE3F
:0B0CB600A3E0FFC3E49FFFE49EFE22CA
:100E1E00020CC1E493A3F8E493A34003F68001F21D
:100E2E0008DFF48029E493A3F85407240CC8C333D5
:100E3E00C4540F4420C8834004F456800146F6DFA4
:100E4E00E4800B0102040810204080901064E47EC0
:100E5E00019360BCA3FF543F30E509541FFEE49399
:100E6E00A360010ECF54C025E060A840B8E493A360
:100E7E00FAE493A3F8E493A3C8C582C8CAC583CA8B
:100E8E00F0A3C8C582C8CAC583CADFE9DEE780BE43
:01108200006D
:1005D500EF8DF0A4A8F0CF8CF0A428CE8DF0A42E3A
:0205E500FE22F4
:1005E700C5F0F8A3E028F0C5F0F8E582158270029F
:0605F7001583E038F0223C
:1005FD00A3F8E0C5F025F0F0E582158270021583B1
:06060D00E0C838F0E8220D
:0F10F600EFC394304007EF943A50028001C322B9
:1010AE00EFC394094005EF940E4004EFB42003D330
:0410BE008001C322C8
:00000001FF
